:020000040000FA
:10800000000C0020BD000000C5000000CD000000F5
:108010000000000000000000000000000000000060
:10802000000000000000000000000000EF00000061
:108030000000000000000000F1000000000000004F
:1080400003260001712B0001A12D000199260001DA
:10805000CF2C000179090001F5000000D10A0001D0
:1080600097550001CD5500019F560001F500000015
:10807000F5000000F5000000F5000000F50000002C
:10808000F5000000F5000000F5000000F50000001C
:10809000F5000000F5000000F5000000F50000000C
:1080A000F50000000348854600F038F80048004716
:1080B000B9000000000C002000F042F80E480F4804
:1080C0000F4800470F4910480847FEE70F4810497E
:1080D0000A78FF2A07D1F0B46A4600B50C230D4C8C
:1080E000A04710BCF0BC02200B490847FEE7FEE7A2
:1080F000FEE7FEE7FEE70000230000003005000079
:10810000A5000000F55500010100000055AACC3380
:10811000806300029D20000173530001064C01257D
:10812000064E05E0E36807CC2B430C3C984710341F
:10813000B442F7D3FFF7BAFF6C010000AC010000B6
:1081400003B40148019001BDD907000102E008C84D
:10815000121F08C1002AFAD170477047002001E0C1
:1081600001C1121F002AFBD17047FFFF9C5F000175
:108170000001002050040000605F00017C540002F8
:1081800060050020100000004C0100008C5400022B
:10819000700500200C0100004C010000C83D0002E9
:1081A0007C0600204C010000605F0001FFFFFFFF24
:1081B000FFFFFFFFFFFFFFFFFFFFFFFFFFFFFFFFCF
:1081C000FFFFFFFFFFFFFFFFFFFFFFFFFFFFFFFFBF
:1081D000FFFFFFFFFFFFFFFFFFFFFFFFFFFFFFFFAF
:1081E000FFFFFFFFFFFFFFFFFFFFFFFFFFFFFFFF9F
:1081F000FFFFFFFFFFFFFFFFFFFFFFFFFFFFFFFF8F
:1082000021001881240015081215FFFF000000024C
:1082100030020002FFFFFFFFDC550002FFFF28FFD6
:1082200010B50521014805F4AFD010BD30020002A1
:1082300049290002FF2D000245250001F317000126
:10824000114F000170B5FE48FF210068FF308130FA
:108250008479FC48FF3400684030808B604305F02F
:10826000EBF8F94D00B2F949A887884768641420F3
:1082700044432004332105F0D9F8E86470BDFEB50D
:10828000F348EF49038AF34A0E68002B1DD0F249E8
:108290000089019008680024FF30A1300090670039
:1082A000BD19FF358135288F0199009A4843142163
:1082B00051566422514305F0BFF8298F641C0818F9
:1082C000E449142CC853EAD3FEBD002041008B19A9
:1082D000FF3381331B8F401C53521428F6D3FEBD4D
:1082E00010B5D94CDA49608F8A894989504305F025
:1082F0009DF800B2D949A083C880D949C00348601D
:10830000D8494860D849A08B088010BDF0B5CD4849
:10831000CF4D0068CC498646048FC9480268FF20CB
:108320008B30805A68808446FF200530865AAE80A4
:10833000488F6881888BA881C648C08CE881C64870
:10834000EB880068FF308130078D9F4203D1012206
:108350002A82C08D0CE0478D9F4203D102222A82DF
:10836000008E05E0878D9F4204D103222A82408E31
:10837000488705E0002028824032908B4887EC80B7
:10838000EA886346A01A1B1A6B80331AAB802881D7
:10839000488FB5494880B548AB4942807046408F08
:1083A000101A40314882F0BD70B504F07BFAB04835
:1083B000A3490079A34EA64C000722D5AB484088BC
:1083C00000280ED0E080FFF7A1FFFFF789FFFFF73D
:1083D00056FFFFF737FFA74800688047A648804749
:1083E0000BE03068008FE0800868FF218B31095A6C
:1083F000FF30618001308088A080A048E188418101
:108400000BE03068008FE0800868FF218B31095A4B
:10841000FF30618001308088A0809949E088088021
:1084200003F0FEFE02F0F6FF00F08DFB01F05EF8B7
:10843000944800250580C5708570857502F0F8FEAA
:1084400004F086FC914990480860306820304079FB
:1084500040070ED58048E12100680901FF30A130B6
:10846000807D8D4B48438A49C8600A46042189486B
:10847000984700208949C0430880608288488A491B
:10848000058345838748086088490520087070BDCA
:108490007A4910B54039098B4843642104F0C6FF7E
:1084A00080B210BDF8B5754E674D403EF088009023
:1084B0007F48AF8A0078C00701D07E4800E0FA20EC
:1084C000F0800020A8827C4CFF206070002000F02B
:1084D00082FD0098F080AF82002060702046203836
:1084E0000189E980C08880082887F8BD554801685F
:1084F00020314879000613D5604A7048938A438139
:10850000D28AC281497949070AD56D490988C905C6
:1085100006D45F490A7802824A7842828978818249
:10852000704767480078C107664812D166490978E4
:10853000C9070ED165490A780B210A42644905D062
:108540004878002801D00020487070470978032936
:10855000FBD10047F8B55248484F0425455F403FDE
:108560007889012108437881002D01DB88437881D7
:10857000584E2C467089002801D068430446F08983
:10858000002809D054490978490605D45349C988B7
:10859000002901D068430446002D14DD306900191C
:1085A0003061F16988420EDB401A3061788D4C49A8
:1085B000884208D2401C4B4978850A8802231A4316
:1085C0000A802A4908804848008841050FD52B4970
:1085D00016228A5E002A05DB31491D4A098A9288E3
:1085E000914204D201224049920290430880164AE7
:1085F0001464106900191061516C884202DC916C9E
:10860000884200DA1161104810490069AA31884790
:108610000D49888634480078C0070BD070690B4933
:108620000019AA317061884738862949306AC9889B
:10863000401830622C48007880065BD5002D55E04C
:10864000F8030020F4030020CC0100206B1E000181
:108650007C06002098050020FC030020A0030020D9
:108660008805002090050020D6030020D0030020BC
:10867000EC030020B80100206D160001100300205B
:108680005C070020A007002001400002C00100207C
:10869000B807002052060020C35800015E070020E2
:1086A00084010020A43D0002C8010020B201002086
:1086B00054010020A60B0000F00600206C030020EF
:1086C000040100200F18000109040020B10100205E
:1086D0002C04002034020020960200206A010020B1
:1086E000FFFF0000CC030020B401002002DCB069D1
:1086F0000019B061F8BDFEB5B048B14D0079B14E7A
:10870000000732D5307800072FD572B63078F724BD
:1087100020403070AC480088E88062B6FFF7F6FD74
:10872000FFF7DEFDFFF7ABFDA8480178214001709F
:10873000FFF788FDA64800688047A648804702F0FA
:1087400069FEA5481921C0688904884208D3A34955
:108750000222087810434006400E10221043087091
:108760009F4803220188114301803078002740068A
:10877000400F00284BD03078C0060FD572B6307845
:10878000EF2108403070974800889749884202D806
:108790009649884200D20846688262B63078944C86
:1087A000800615D572B63078DF21084030709148C8
:1087B000008862B6A98A81420AD0A882A781E7818F
:1087C000400027820019C1888B48C18201F028FB34
:1087D000307840061BD572B63078DF210840307003
:1087E000864801886A46118041885180808890803F
:1087F00062B6002041006A46635A525A934202D040
:10880000625209198F81401C80B20328F2D36F494C
:108810007B4C0878C20707D0400840000870208AC7
:1088200003F0FCFD02F048FD7648008800281CD1CA
:10883000688A7549884218D0744A1423D35E002B85
:1088400012DD7349D080097800B2C90702D071499E
:10885000401800B205210902401800B20A21401D4B
:1088600004F0EAFD208000E06982FFF773FE6A48A9
:108870000078400705D55848016C68480268891897
:1088800001606748804702F00CFC03F0DAFC02F05C
:108890008FFC03F0A9F802F09FFE02F06CFF307825
:1088A0006049800711D03078C00701D0208A00E0ED
:1088B000608A72B6327892089200327062B60A8884
:1088C00041235B021A430A8008E0088801050AD5A3
:1088D0005548817D002904D08775408A02F0DDFD6E
:1088E00010E0608AFAE7400603D5208A02F0C6FE4F
:1088F00008E04148007AC00904D044484030408B29
:1089000002F0ABFF49480178491C0170FEBD10B56B
:1089100000F0F9FB01F0A6F801F009FA01F079F98D
:1089200001F0B2F901F0BAF940480178491C017030
:1089300010BD364910B540311620085E002805DA12
:1089400040391E228A5E904200DAC88303F030FF6D
:108950003748006820304079400701D503F03AF9E4
:1089600003F084F901F06BFF30480178491C017075
:1089700010BD10B52F480078102803D0112801D061
:1089800003F05BFB2C4804220178C906C90E017074
:108990002A48018891430180194829498088C88064
:1089A00028488047FFF7A2FD274801784908490079
:1089B00001701E490020087010BD0000EC0300206B
:1089C0007C060020B10100205C070020B0010020DF
:1089D000B80100206D160001CC0100207C070020AA
:1089E000CC0300205E0700208E0F00001C09000051
:1089F0006A0700206007002034070020620700207B
:108A000084010020A0010020FFFF0000D002002010
:108A10005401002054F5FFFF71050020840500205B
:108A200053500001B4010020A0070020B301002032
:108A3000F40300202C040020960200209A0200205B
:108A40006A010020974600011605002070B5049DBC
:108A50000646E81A14460003511A04F0EDFC311BD7
:108A60004143C817000D40180013401900B270BDF3
:108A7000F3B5FF4B83B00025FE480029026801D002
:108A800000240AE01D780EE0115E0398814200DAAE
:108A90002546641CE4B2042C05D26000861802212D
:108AA000715E491CF0D1DB7FF249F14C096820343A
:108AB0005A00247852186118184614246043002B79
:108AC0003DD050236B431B185C1823794034247D20
:108AD000DB00E6000C24145F50276F433818401861
:108AE000017E6030007AC900C00002900E20105E46
:108AF0000190E148009100682146808F019A404230
:108B000000B2FFF7A3FF074602980090DA48334609
:108B100000682146808F019A404200B2FFF796FF1D
:108B200080B2D44900900968680044180222095EA6
:108B3000BBB2A25E0398FFF789FF05B0F0BD00232A
:108B40001E461C46C8E770B5CC4803224280062367
:108B500083800821C180083042808380C44AC1805C
:108B6000C84C2832C648A047C74DC14A2868303291
:108B70000821FF304930A047BD4AC148383208219A
:108B80000830A047BA4A286840320821FF305930DF
:108B9000A047BE490322087810430870B448FF215B
:108BA0000170417000212030417000F041FC70BD27
:108BB00070B5C28855184C1C0023C35E42888E567F
:108BC000B34207DB1657B3420EDB8688B24205D0AC
:108BD000521C02E0002A07D0521E42801204120CDE
:108BE00002D08688B242E9D190B2401900214156A4
:108BF00088B270BDF8B5502250439E4A1268801862
:108C0000142251434218107EC4009F4801680B464D
:108C1000FF318131088A001B05B2954C0420205E8B
:108C2000854201DB0020F8BD2124A45C498CE400CE
:108C3000091B09B2814212DD012103E0491CC9B2BE
:108C40000A291ED25418247EE5004C00E418FF3493
:108C50008134248A641B24B28442EFDB11E00A21B0
:108C600003E0491CC9B213290BD25418247EE50035
:108C70004C00E418FF348134248A641B24B28442FB
:108C8000EFDB834D4C002E5B00965618317ECA00F8
:108C9000E118FF3181310B8AC9899A1AF37D12B22A
:108CA000DB00C91A6319403B09B2DB8FFFF7CEFE28
:108CB00080B2F8BDF3B56E4F83B079783878FFF79E
:108CC00099FF029038787978401CC0B2FFF792FF84
:108CD0000646787800280FD0401EC1B23878FFF7DA
:108CE00089FF04467878401EC1B23878401CC0B273
:108CF000FFF780FF05462AE0634804240168FF204F
:108D000091303C5F425E944201DC00241EE0012071
:108D100003E0401CC0B2132806D24200FF235218C1
:108D20009133D35E9C42F4DC594A4000135A8218B6
:108D300040180093403AFF30D38F813010220E212B
:108D4000825E415E2046FFF781FE84B22546FC82AA
:108D5000029939837D83BE83797800292CD0454AD6
:108D60004B0012689A180C27D75F424849000068E8
:108D7000234609180E20085E01900298009039469B
:108D8000019A0398FFF762FE04462B460096394687
:108D9000019A0398FFF75AFE80B200903448354993
:108DA00000780968A3B2400044180222095EA25E5E
:108DB0000498FFF74BFEC0E60027D6E7F3B52C4C2E
:108DC0005021207814224843617883B051434218DF
:108DD0002849A07F09682E4F411851184A7E40004B
:108DE000D300294A12688218FF328132558AEB1A61
:108DF0009BB20093097E128AC900511A8BB2C11925
:108E000002228A5E395E234D1420285EFFF71EFE83
:108E100086B2207850214843617814225143154A84
:108E20004118A07F126882188D186035697A400059
:108E3000CA00154909684118FF3181314B8A9A1AD5
:108E400092B200922A7A098AD200891A8BB2C11989
:108E500002228A5E395E0F4D1420285EFFF7F6FD70
:108E600085B26078002869D021785022514313E000
:108E7000D0060020FC030020F4030020C0050020E1
:108E8000B83D0002C3580001F80300207C07002011
:108E900098050020CC010020142250430A18FF49F5
:108EA000A07F09684118521851799446CA00FC49BC
:108EB000400009684118FF3181314B8A9A1A92B2F9
:108EC000009262461279098AD200891A8BB2394619
:108ED000411802228A5E3946095EF24F1420385E3C
:108EE000FFF7B4FD87B220785021484361781422FF
:108EF00051434218E949A07F09684118521840328D
:108F0000517D4000CB00E64909684118FF318131AD
:108F10004C8AE31A9BB20093127D098AD200891A07
:108F20008BB2E149022241188A5EDF49DD4C095EBD
:108F30001420205EFFF78AFD84B215E0DB48D84993
:108F4000807F096840004118FF3181314A8A0092D0
:108F50000B8AC11902228A5E395ED24C1420205E2F
:108F6000FFF774FD87B23C46D048C7810682448231
:108F70008582417800292CD0C84A4B0012689B1882
:108F80000C229A5EC54802920068490009180E201A
:108F9000085E019002463B46009602990398FFF74F
:108FA00055FD064623460095019A02990398FFF75E
:108FB0004DFD80B20090BD48B84900780968400076
:108FC00044180222095EB3B2A25E0498FFF73EFD88
:108FD000B3E50022D6E7F8B5051EB048016801DD0B
:108FE000002504E00C20085EA84200DD0546B048DC
:108FF0000624045FAF480078C00702D0AE482018AE
:1090000004B20A20085EA04200DC0446012003E00E
:10901000401CC0B2042808D2420056180223F35E56
:109020005B1C02D08A5EA242F2DBA04E401E307072
:10903000002003E0401CC0B2032809D242005218AD
:109040001023D35E002B03DA0E23D35EAB42F1DC98
:109050007070944F0120944AB98A03E0401CC0B25A
:10906000132803D24300D35A9942F7D8401EB07751
:1090700021462846FFF7A2FE8C49708020314978AE
:109080008E4A002903D010684030008807E08849E4
:109090004031498B401A1168403109884018B0802E
:1090A00000B2002801DA0020B08021462846FFF7F0
:1090B00001FEF0801C22BA5EFF25AD005043294618
:1090C00004F0BAF930817A481421415E744800688E
:1090D000FF3061300078814214DD00212046FFF727
:1090E000C7FC718940187649B0810988081A7084D4
:1090F00080B203F093F91C22BA5E2946504304F073
:109100009BF9B084F8BDFEB56E48804768491420CD
:10911000085EFFF760FF65480826865F24380684EE
:10912000604D3420285EB04202DD801B07B200E0B3
:10913000002765486F800078C1075D484030009087
:10914000002972D16148FB24C18A614800888142AC
:109150000BD9E868C217120C1018021450480068A6
:10916000FF300130807A82425BDA00981422C38A91
:109170004F48825E981A4A4B00B21B68FF33213376
:10918000DB785B429A424CDC524A12888C1A524974
:109190008847434912220968FF3101318A5E9042B3
:1091A0004E48007A02DD40073FD521E0019040079C
:1091B0001ED4A888C97A4843FF2104F037F93B49F7
:1091C0003C394861381A0004002C07DD214604F0C0
:1091D00033F936493C3908610C8004E033490020FA
:1091E0003C390861088001993C480422114301720E
:1091F000002C04DD2D493C390869002803DC2B488C
:109200003C3840690BE00A88944201DD688806E03A
:109210006043C217120C1018496900144018688086
:1092200003E02E48017A214001722D480288100681
:1092300004D51E48A98B808C081A28831620285E26
:10924000B04202DD801B00B200E001201821695EFF
:10925000814202DA401A00B200E001202C21695E4E
:10926000814204DA1F4B1B781B0700D40846104CC0
:109270001421615E002901DC110607D50B4A1C216F
:10928000243A515E814201DA401A00B2074A1A219B
:10929000243A515E814200DD084625E0FC030020AF
:1092A000F8030020CC01002098050020D006002003
:1092B000D00200205401002054F5FFFFF4030020E9
:1092C00082060020115000017C070020840100204C
:1092D000180700201A0700206959000134070020F0
:1092E000B4010020B00100207549A8800878C207A9
:1092F00059D0400840000870C0097348714E285E7C
:1093000048D0B047A968714F441A3968A888FF311E
:109310006131097F4843642104F08EF800B2B04700
:1093200001903868FF306130C07CFFF7B1F800B2BF
:10933000B04767490246C8600198844230DC404229
:1093400084422DDB94420ADC5042844207DB0098C1
:10935000418B3868FF304130808E81421CD85B4899
:109360000068FF306130407CFFF792F800B2B047F0
:10937000574F786055480068FF306130807CFFF7B8
:1093800087F800B2B0474042B86079688C4204DB8D
:109390000C4605E0B047A860FEBD844200DC0446F0
:1093A000A8680019F7E7296C0029F5D0688D6A884C
:1093B000801A00B2002901DD404200B27D21C900BF
:1093C00048430421695E04F037F8424A01B29042F2
:1093D00002DCD243904200DA11463F4801803C490A
:1093E0006431FFF7E5FBC0B2002100F02AF92A6CD6
:1093F00000B250430A2104F01FF838492289096855
:10940000403109888A4208D21421615E002904DAB9
:1094100033490968884200DD0846A9680818A86031
:1094200001D50020A8600146686C8142B3DCFEBD16
:1094300070B52C4900230C682849184609680CE0CF
:109440003C254D5F0E26965F6D42B54201DA421C07
:10945000D3B2401CC0B2032805D242001219102515
:10946000555F002DECDB1A4C1F483C34E377007944
:1094700043061648026810D501200B8F03E0401CFC
:10948000C0B2132806D24500AD18FF3581352D8AAC
:10949000AB42F4D844254D5F06E0FF328132098F9C
:1094A000D28E1320891A0DB20949401E5C31087012
:1094B0000121FA20FFF7DCFA281A608170BD000054
:1094C0007C0700206B1E000102000000F803002052
:1094D00094060020FF7F0000C0050020F403002058
:1094E00080070020FC030020EC03002070B5F84842
:1094F0000A210468E51DF935287A000403F096FF77
:10950000F44EF64A7061F44800684030008870807C
:10951000298A914201D008187080E98980B209181F
:1095200089B23180814201D864303080687AFF2866
:1095300000D10A2009210004C94303F07DFFB06176
:109540000020B080FF208030005DF080FF202130BF
:10955000005D00023081E248C078C106E14812D5C2
:10956000E1490968FF31A131897F09028161FF2149
:109570005731095B81844034E17D0904C161E17F99
:109580000904016270BD19218902818470BD70B522
:10959000D749D64D02460988286C09B2CE4C4843BB
:1095A00021684031497A002900D0484311B202F0C5
:1095B000D3FB020C09041143AA88FF2369335A43E1
:1095C0000004D31702F0C2FB24684034A27A002AB8
:1095D00002D0D30F02F0BAFBC64B00221B1A8A41FD
:1095E00001DAC44806E00123DB07DA17C31A914108
:1095F00000DAD007B74A5169884202DC4942884202
:1096000000DA0846BC4924880B89A34207D21423F8
:10961000CB5E002B03DA9169884200DD0846E968D9
:109620000818E86001D50020E8600146E86C814236
:1096300001DC084600E0E860C117090E08180012B6
:1096400070BD70B5A74AA34D127A5407AA4A40329A
:10965000538B6A88002C05DB93421DD8A34C246CE5
:10966000002C19DA9A4C9342246809D8FF3441340B
:109670001F202056002980B202D10F20205680B230
:1096800093490968FF3101310A2806D9097B414312
:1096900088B20A2103F0CAFE70BD0A28FCD20A2251
:1096A000504380B2497B03F0C1FE0028F4D1012071
:1096B00070BD10B586498B4A096840310B7AD16973
:1096C0005843814202DC116A814200DA0846FF21D8
:1096D000693103F0B1FE8549CA681018C86001D528
:1096E0000020C8600246C86C824200DDC86010BD20
:1096F000F0B57B49804849781425CA0901464031B4
:1097000087B0455F7D4E724C764F0091002A1DD088
:109710000821415E00981A22825E881AB0472168AB
:1097200040310A7E904226DD787D497E884207D806
:109730003A7AD20702D0401C787501E0491C79754D
:1097400067484078C10901D0400618D50098C08A02
:10975000401B00B2B0472168FF3101310A7E9042C0
:1097600043DDF879497E884209D83A7AD20704D095
:10977000401CF87103E00020DEE7491CF971002D60
:109780007EDD00982468418B0194FF345C480134ED
:10979000E27D00880690801A814271DBF87904909E
:1097A000617E88426CD80198797D403003910290A7
:1097B000407E8142F6D84D4EB98C706A88425FD2A5
:1097C000A18AA8B2884204D9A17DF0680904884220
:1097D000E3DB4448434FC18A007A691A0590C00709
:1097E00020370DB2002802D01EE00020C1E73D481E
:1097F000002D858007DD1920F26880042946801A33
:1098000003F01AFE00E0002036490860A17DF068F0
:109810000904884201DBA07E00E0E07EB871059972
:1098200030480122114301722D48C078C0060498C7
:1098300068D5002802D10398002807D00A20FFF736
:10984000A6FE28490120488107B0F0BD002D04DDA7
:10985000244B19689869814255DB0198FF308130AB
:10986000817B0698401A0099498B401A00B2002863
:109870000BD01D4900040968FF31A131C97D00E00A
:10988000E7E003F0D9FD014600E00021192292042F
:10989000501A144C0029E06014DDF268801A0A2284
:1098A000504303F0C9FD0A3001D5002004E00299BD
:1098B000C97E814200DA0846206180B2FFF767FE68
:1098C000032076E0F068101AFFF7F3FE022070E044
:1098D000F803002018070020F4030020FFFF000019
:1098E000EC03002034070020FC030020CC01002002
:1098F00006010020FFFFFF7FD00200206959000110
:109900008206002057E0002917D098790190627FE5
:10991000009290423DD20420185E1E46401B4143F7
:10992000207F0D4600040A2103F080FDA8420EDCD2
:109930000198401CB071002019E0187A1E464008BA
:1099400040001872B879FFF722FE06201FE0029847
:109950000921807EC943000403F06EFDA84204DBA8
:109960000020B071307D401C01E00020B0713075E6
:10997000B1790098814202D2317D814203D3307A9D
:10998000400840003072B879FFF701FE0420708172
:109990005AE7192069438004401AF1681C46401AAE
:1099A000002802DDFFF785FE02E00A20FFF7EFFD49
:1099B0000520608148E7002802D10398002801D0E3
:1099C000F06844E0002D08DC308D622805D3FF21CB
:1099D00001986031415688B236E0FD4880790190A7
:1099E000617F009188421BD2207F0A21000403F08E
:1099F0001DFDF7490423CB5E0A685B1B5A43904266
:109A000002DC0198401C00E000208871C2B200987E
:109A1000824203D3087A400840000872B87913E004
:109A2000EB480421415EA94201DAF06808E00068D1
:109A3000192168438904081AF168814200DD08464B
:109A4000F168814203D10A20FFF7A1FDFCE6F06036
:109A5000FAE6387A4008400038720020B87138754C
:109A60007881F1E6F8B5DB4D64216888000402F0E6
:109A700073F90422AA5ED31702F068F9D64B0022CC
:109A80001B1A8A4101DAD44806E00123DB07DA1702
:109A9000C31A914100DAD0070646CD48F7171C38A3
:109AA0000661380E8019001228620002000C28801E
:109AB000EC68E017000E0019001201020A0CC749F9
:109AC0000B78990769D5C549FD273B400B70D9092B
:109AD00035D0311BC24E36683746FF376137BC463A
:109AE0003F7F3F048F421DDD7F428F421ADA674677
:109AF000FF7C3F048F4209DD7F428F4206DAB94F77
:109B0000FF3641367F8BB68EB74213D86046407C15
:109B10000004884205DD6046807C000440428842A3
:109B200000DB01466018C117090EE8600818001232
:109B300001020A0CA9495B065B0E0B7066E0A748A0
:109B4000D90623D5EF210B400370A748A749C08C45
:109B50000988401A00B2002816DD0521090448438F
:109B6000332103F069FC00280ED0192292048018DA
:109B7000A11BE860002901DD4018E860E968E86C95
:109B8000814205DC084604E0B442F7DCEE60F5E70C
:109B9000E860C117090E081821E095498C4C8988A6
:109BA00000292BD0FFF7A4FD380C8019000CE883A6
:109BB000E9680A22881B5043C217120C10188C4AFD
:109BC0000423D35E0014002B01DD404200B2894A19
:109BD0001080207AC00706D0C817000E4018001267
:109BE00001020A0C12E084498248FEF7E1FFC0B28C
:109BF0000121FFF726FDFFF7CAFCF1E7217A4908AA
:109C0000490021720021A1712175618168622A8554
:109C1000F8BD70B56F4C0121E0680904884232DB61
:109C2000C117090E08180512744801684031887A76
:109C3000002802D0C200801800E009204543487A7D
:109C4000002801D0800100E040206D49098841438F
:109C5000A06802F081F82A46EB1702F077F8694B0A
:109C600000221B1A8A4101DA664800E000B2162180
:109C7000615E814203DB0421615E814200DD0846B2
:109C800058494039088370BD5248418D5548403885
:109C90000182018B4182C18C81857047F0B54C48AF
:109CA000564A1C38136841894A481C4640334D4A7D
:109CB000408D1D8C0426403A854202D35589354398
:109CC00055815D8C854202D85589B54355816034F4
:109CD000267AFF2501358E42568902D36F00BE4396
:109CE00000E0AE435681647A8C4202D3B4B22C4376
:109CF0005481DC8C0225844202D85489AC435481BF
:109D00009B8C834202D35089284350813E4A3F4B6B
:109D10001088440503D5642901D29843108080B28D
:109D2000840503D5642901D298431080F0BDF8B5AD
:109D300032482F4E0068F18A403040880027254D78
:109D4000814204D93249A8688847688505E03148CE
:109D50006F850079400700D5AF60224C688D403C8C
:109D60002B4960841E39686A88476862F18A234EED
:109D7000306840304088814205D826486F620079BB
:109D8000400700D5EF60686A0102090C2985104D73
:109D90001C3D2989884201D8002009E0401A64212D
:109DA00048430F490968FF312131497803F03EFBF0
:109DB00017491E39884781B20002A981000C6881C9
:109DC000326820325279520626D4E08425E0000021
:109DD00034070020CC010020FFFFFF7F7C0700201C
:109DE000F803002010030020980500208A060020B8
:109DF00084010020C805002008070020F40300208B
:109E000006010020FF7F0000B401002000060000D2
:109E1000151F0001EC030020E18406488047F8BDCF
:109E20000548017A490849000172002181710175D4
:109E3000418170471150000134070020F8B5FE4AF7
:109E40000124136864042343FC4D13606A180C4614
:109E50009446B82820D0B92828D08B1CDEB2B61C76
:109E6000F7B2BF1CFAB2921CBA282FD0BB2847D039
:109E7000BC287AD02A46521810320092BD2872D0DF
:109E8000BE2871D0BF2806D1ED4A9047EE4B042181
:109E9000EC48009A9847F8BDEB4B2021EB489847D7
:109EA000EA48E649006C4031C880F8BDE64E0E2114
:109EB000E748B047E7490E34E0B2498B2952801C8D
:109EC000C0B22A18E24810210E3059E0E248D4B25C
:109ED00080886852E149D8B209882952E049F0B235
:109EE00009892952DC49F8B2498A29522A19D64BE4
:109EF0001421DC489847DC491434E0B2096854E086
:109F0000DA4800786852DA49D8B209882952D94922
:109F1000F0B209882952D849001DC0B209682950F9
:109F2000D649001DC0B249682950D549001DC0B2AC
:109F300049682950D349801DC0B209882952D249A5
:109F4000801CC0B209882952D049801CC0B209883F
:109F50002952CF49801CC0B24A8A2A52801CC0B202
:109F6000C98C38E001E00DE021E0B74E62461821CF
:109F7000BB48B0471834E0B22A18B748082110305F
:109F8000B047F8BDAE4A9047AF4B0A21C148009A8E
:109F90009847C1491A34E0B2CA782A54401CC0B26A
:109FA0000A792A54401C8968C0B22950F8BDBB48C0
:109FB000BB49008809880843BA49098808432853DF
:109FC000B949D8B209882952B849F0B20978295458
:109FD000B749F8B209882952F8BDF8B5984904463E
:109FE0007C318847B3480078022807D1BD2C05D1C1
:109FF0009248C06D002801D0A7498860AE4800781B
:10A0000040071FD58D482030807F0F281AD18B48FC
:10A010008D4B4030A94D0427A94E082C02D0092CA5
:10A0200006D00FE0A74A062198472878384305E074
:10A03000A54A0621984728780821084328703078D7
:10A04000384330707E49032040318847F8BD70B5F1
:10A050009E497A480A787A4C79492030807F40348A
:10A060009E31002A03D0F0282AD3884770BD70287B
:10A070000BD07128F9D1964800682030407940070C
:10A080001ED500F0A6FA01201BE06C4806216E4D9B
:10A09000904A4030A847694806218F4A4630A84771
:10A0A000664806218D4A4C30A84784480178102222
:10A0B0001143017082480422017811430170E2E7E4
:10A0C0000520A04770BD70B5044601205C494002E0
:10A0D000BE318847594A012640325B4B564D7604C3
:10A0E000012C12D0022C13D0032C18D0042C19D020
:10A0F000052C1AD0062C1BD0072C1CD0082C1DD0E8
:10A10000092C0BD10621704804E00621744801E0B7
:10A1100006217048984728683043286070BD0621A2
:10A120006D48F7E706216D48F4E706216D48F1E731
:10A1300006216D48EEE706216C48EBE706216148F1
:10A14000E8E7F8B501223E493C4C52023E4E3A4DFA
:10A150001702BE314034702802D0712811D023E09C
:10A1600010468847224606215A48B047334A5A4883
:10A1700046320621B047314A58484C320621B04792
:10A180000EE0534B1B6820335B795B070CD5104600
:10A190008847224604215648B0474A480088A08094
:10A1A000286838432860F8BD8847F8BDF8B50146EF
:10A1B0004B00224901205C184E4D4034628FE95A11
:10A1C0007D267601FF27961BE237BE4201D303208E
:10A1D00008E08A4206D0EA521146474A15784026DE
:10A1E00035431570454A9A184032D1826187144927
:10A1F0004031884742488047F8BDF8B502064149DA
:10A20000530E17D0520E012A15D0032A7ED00C4CC3
:10A210003A4F4034094E102A79D00E4D122A77D089
:10A22000132A76D0384D182A74D0372A73D03D2A95
:10A2300072D072E076E07BE0B802002000000020DF
:10A24000973A000118020002C3580001CC01002017
:10A25000D006002010030020840700207205002093
:10A2600034070020A00700207C0500207105002095
:10A27000B40100207405002084050020880500201A
:10A2800090050020820600207E0600208006002027
:10A290009805002076070020B80700200005002060
:10A2A0000C0500200E0500200405002012050020EA
:10A2B000060500206302002094020020970200207F
:10A2C00017050020D0030020D603002098020020AC
:10A2D000F40300202E060020340600203A06002059
:10A2E0002806002040060020460600204C060020DC
:10A2F0005206002062070020B10100202C0300203C
:10A30000752E0001933F00015127000117E01DE069
:10A310002EE038E03FE049E04FE03E2A53D03F2AAC
:10A3200056D05DE0C0B2884701280ED1FB4842E01C
:10A33000C0B28847012808D1F84894383BE0C0B241
:10A340008847012801D100F094F9F8BDC0B28847D0
:10A350000128FAD1308C022800D90020F0498880E9
:10A3600038843084EF48017820221143017006E0E0
:10A37000C0B288470128E8D1B08CE880B8840120B9
:10A38000A047E94817E0C0B288470128DDD1F08C2A
:10A390002881F884F3E7E54A1279120720D5C0B284
:10A3A00088470128D1D100F03AF9F8BDC0B28847FA
:10A3B0000128FAD1DE488047F8BDC0B2884701289D
:10A3C000FAD1002009E0C0B28847012805D0F8BDC5
:10A3D000C0B288470128FAD10220FFF7E7FEF8BD96
:10A3E0000220A047A847F8BD02460020C04311063E
:10A3F0004B0E1AD0490E012917D0032915D0102968
:10A4000013D0122911D013290FD0182908D06E2A81
:10A410000BD03D2909D03E2907D03F2905D003E0C4
:10A42000C2490979090700D402207047F8B50446EB
:10A430000E46FE21084000253E382746ED43553F95
:10A440000090242805D3BB49204609688847054663
:10A4500015E0B9483E2C00780DD0612C0BD03F2C74
:10A460000DD0542C0BD0602C09D00B2F06D28007B6
:10A4700004D4002503E08007FBD500E00125AF49A7
:10A48000042E09D0022E07D0009824280ED3AC4900
:10A490002046096888474AE0002D03D102208847FA
:10A4A000A8488047A8490020088040E0A74E3E2CDD
:10A4B00009D03F2C0DD02046403814280CD2012062
:10A4C000884799481FE09C48007880072CD5A04811
:10A4D00028E000F0FDF82AE0542C06D00B2F07D21C
:10A4E000954800788007EAD41EE0994872380AE05F
:10A4F000602C02D0612C0ED016E08F4800788007C7
:10A5000012D59348DC388047924801220168120432
:10A51000114301600BE088480078800704D50120D2
:10A5200088478148804702E002208847B047284694
:10A53000F8BDF8B588488047794800218180818836
:10A54000864C21848088864D754B28840020854E5A
:10A550009B1D4100725A5A520F1940374919403118
:10A56000401CFA8280B24A870328F2D3F8BD7E49A4
:10A57000002008707E497D4808607F497D4808605A
:10A580007F497E4808606B497E4808606C497E4878
:10A5900008607F497D4808607F497E48086080499F
:10A5A0007E48086080497F48086081497F4808608C
:10A5B0008149804808608249804808608249814812
:10A5C00008608248824A0179117082494079087096
:10A5D0007047634810B504214030804B7E4A0446E2
:10A5E00098477A49A08808807B48C1783C2901D3E4
:10A5F0003B21C1708178182901D3172181704178DE
:10A600001E2901D31D214170754801782422114370
:10A6100001707448042201781143017010BD10B517
:10A6200071494F480968008E098F3D4A81420DD01B
:10A630006E490968FF3181310B8D834206D04B8D05
:10A64000834203D0898D814200D0108811888142D5
:10A6500005D0108033490A7808231A430A703F490D
:10A660000886634948813549012088472E4880473C
:10A6700010BD70B52D493A4BC978D8884D075D4952
:10A680005D4C098802B20BD565105219651EAA42AD
:10A6900004D2C9070CD05949401808E0204607E009
:10A6A000A04205D0C90703D154484042101880B2D7
:10A6B0001B4948802948C088D8801A480178102250
:10A6C000114301701D49012088471748804770BD1C
:10A6D00010B52348184920300978C07F890701D573
:10A6E0001B4819E015497E31002804D0421E022A79
:10A6F00004D8F1300BE0FF20013008E01A4A12784C
:10A70000022A02D102090B2A7BD00120400288478D
:10A710000A49012088470448804710BD7D40000158
:10A720005C070020B1010020752E0001EC03002021
:10A73000413F0001BC02002094020020D73A0001F2
:10A74000C00200201D260001B60100205127000193
:10A75000FB420001B8020020C94400012C03002084
:10A76000000000206A070020630200203325000259
:10A77000780200202D2400027C020020B14100015B
:10A7800080020020E9230002FB210002593C000165
:10A79000C4020020EF3B0001C80200204321000258
:10A7A000A4020020C7200002A80200204F200002BF
:10A7B000AC020020DB1F0002B00200203D1E0002A0
:10A7C000B4020020D9380001CC020020D0030020C0
:10A7D000980200209902002052060020C358000170
:10A7E0009702002017050020F4030020FC0300203E
:10A7F0001003002054010020FFFF0000AC0A0000FD
:10A80000FFE7024A40211268904781E7B402002026
:10A8100010B542480068008C81040AD540490022E6
:10A8200009780223CC063F49002C05DA400401D404
:10A830008A6010BD8B6010BD4004FBD5F8E770B591
:10A84000374A312110680901884337491060CB89A4
:10A85000324970240968645A234202D010231843F5
:10A860001060203132488979304B00888C0704D53C
:10A87000840502D514681C4314602E4CCD0704D007
:10A88000C50502D51568254315608D0604D58506D6
:10A8900002D515681D431560CD0604D5C50602D541
:10A8A000156825431560244D0E0704D5060702D50B
:10A8B00016682E4316604E0704D5460702D5166863
:10A8C0002E4316600D0604D5050602D515681D43F6
:10A8D0001560490604D5400602D510682043106073
:10A8E0001648174900782023C4070888002C09D08F
:10A8F000144C2478002C05D014681C4314609A0270
:10A90000104304E0146840049C43400C1460088029
:10A9100001F082FFFFF77CFF70BD0000F403002010
:10A92000D0050020000401401003002000010000B9
:10A9300068060020000200000003000064020020FE
:10A940009A0200200A04002010B572B63B4908683C
:10A95000C00301D4002000E00220BFF34F8F086045
:10A96000BFF34F8F62B63649374A3648904737486B
:10A9700080473849364808603849374808603848C1
:10A98000C27E3849332A01D0007F00E000200870E1
:10A990003549FF208847354880472C482238804772
:10A9A0000622344B3249D01F9847334880473248FB
:10A9B00028388047314C2088314988473149601414
:10A9C000086031482E4A0088E03A411C401C9047FC
:10A9D000284900204C3188472948A03880476088A2
:10A9E00027497E3188471948EC38804700F0FBF84A
:10A9F00026488047274926480860FDF740FC26483E
:10AA000080471D4882388047FDF7CEFC23488047A9
:10AA100023488047FFF7ABFD224880472248804704
:10AA2000FDF764FD10489A38804702F00FF91F487F
:10AA30001F4900681430086010BD000000F001409C
:10AA40000008002070050020DD5800011D4A0001AB
:10AA500000020002080500200C020002040400208D
:10AA6000C06300026802002037540001A9220001DF
:10AA700010020001D1080001210B00014062000218
:10AA80005556000180E100E01C050020570C000134
:10AA9000A5040002B8010020FF160001DD4E0001F0
:10AAA000031D0001D923000197460001DC030020AB
:10AAB000E0030020F8B505468806FD4E800E1446DA
:10AAC000FB4F2036030001F05FF90B8C7E22303DF6
:10AAD0004A57647107148C00A00717D5082128462F
:10AAE000B84701287DD10621F24A681CB0470220F0
:10AAF00076E0E00775D008212846B847012870D1D4
:10AB00000621ED4A681CB0476408640069E0E0056E
:10AB100067D508212846B847012862D10621E74AAF
:10AB2000681CB047FF2001305AE0200659D50821A3
:10AB30002846B847012854D10621E14A681CB0478D
:10AB400080204DE060064CD508212846B8470128F2
:10AB500047D10621DB4A681CB047402040E0A006F0
:10AB60003FD508212846B84701283AD10621D64AC0
:10AB7000681CB047202033E0E00632D50821284683
:10AB8000B84701282DD10621D04A681CB0471020B3
:10AB900026E0200725D508212846B847012820D1DE
:10ABA0000621CB4A681CB047082019E0600718D579
:10ABB00008212846B847012813D10621C54A681C38
:10ABC000B04704200CE0A0050BD508212846B84763
:10ABD000012806D10621C04A681CB0470120400266
:10ABE00084432046F8BD10B501F0C8FFB0485A387C
:10ABF00080470121400249064018B849086001F029
:10AC0000EDFF00F0A2F9B6480078800706D4B548F9
:10AC10000078000702D5A7490120487110BDF1B5A1
:10AC2000B14E0127306882B0402807D3AF482022B8
:10AC3000017811430170AE480770FEBDA748B021EE
:10AC40000468AC4D2078084010281ED0AA4801782E
:10AC50000770A020C043009072B601236A462146C7
:10AC6000A648A84762B620680099884204D0A44844
:10AC7000018839430180FEBD3068A249801C3060E4
:10AC80000878022801D2401C08700298402108432D
:10AC9000019030689149C20009689B4C401C3060AB
:10ACA00027460198387002985518030001F06CF897
:10ACB0000B3A382A2C2E3032343607093A007D48B8
:10ACC00000E07D487A4B06217A1C20339847784A69
:10ACD00007218D481A3A9047F87172B60223854FC2
:10ACE000224629468548B84762B6022221462846B0
:10ACF00001F064FF012817D0012130684902884221
:10AD0000C7D2FEBD6D48DDE76D48DBE76D48D9E78A
:10AD10006D48D7E76D48D5E76D48D3E76D48D1E773
:10AD20006D48CFE7781CCDE7774A0A211078774B3A
:10AD30008006800E091A012088401988684C8143DA
:10AD4000198025880543258088050024002805D121
:10AD50006649EF250878284008701C80FF20107095
:10AD600063480470FEBD70B572B6694D287800283E
:10AD70003ED028780221C2074E48644C002A05D0F4
:10AD8000644A1278427122880A4322802A78920704
:10AD900005D5614A1278027122880A4322802A78F6
:10ADA000520705D502885D484285208808432080E7
:10ADB0002878000703D520880121084320802878BF
:10ADC000C00603D52088E02108432080287880062B
:10ADD0000AD5374B0421524A3F48203398472088F0
:10ADE00001214902084320802878800980012870C9
:10ADF0004C48FB2201781140017062B670BDF8B575
:10AE00003B4C424F2078394D002806D000260128BF
:10AE10003DD003284BD02670F8BD39480078C007D4
:10AE2000FAD13B490878234AC00706D072B63948A0
:10AE30000078002800D0507162B65079002817D0F1
:10AE4000FFF791FF3888002803D0287810210843A5
:10AE5000287029783448002905D001212170017813
:10AE60000222114302E00178FD2211400170F8BD79
:10AE700072B60878C00708D1087880098001087088
:10AE80002848FB2201781140017062B6F8BD28788D
:10AE900081064BD501F0B8FE2878DF2108402870E4
:10AEA0000F482670008838800F480660F8BD47E0DC
:10AEB000A3580001D0030020D6030020280600205C
:10AEC0002E060020340600203A060020400600200E
:10AED000460600204C0600205206002024060020D2
:10AEE000CE030020EC03002020060020680700208D
:10AEF0001C0600209D2000011E06002055AACC3310
:10AF0000120500201D06002060050020CC03002053
:10AF1000970200209902002098020020D002002011
:10AF2000B807002017050020160500202949098AC6
:10AF30000029BBD0C006B9D50A2001F074FEF8BDC7
:10AF400025480078FFF76BFEF8BDF8B50025ED4306
:10AF50002248AA0D0095028021480678002E25D0AF
:10AF60003F2402271F48E1000068415C890903294A
:10AF700002D0691C1FD005E0691C00D10094641E3A
:10AF8000BC42EFD2E300C15C1818FFF793FD02004A
:10AF900013D0641EBC42E5D2761E3606360EDFD1D3
:10AFA00000991148491C0AD0009901600B49088892
:10AFB00050400880F8BD2546E4E70126ECE7094942
:10AFC0000968FF31E131097EFF2901D04021ECE71A
:10AFD0000221EAE78401002060050020CE03002062
:10AFE0001D06002024060020200600209F499E48C0
:10AFF000C8609F48012241895202114341819D4806
:10B0000003220188520211430180704770B59A48AB
:10B010009A4C0088964D4100142208190623AA5E16
:10B02000C35E9A423ADA934B1A88D60433D42D89F8
:10B03000615A8D422ED9924C818924682034A57F93
:10B040000124A94205D2491C81818E4801782143FF
:10B050001FE08D488D4900680988FF308130808964
:10B06000884217D201200003024389481A800178E0
:10B0700021430170FFF7BAFF86488079C00709D0E5
:10B0800018880121C9030843188083488122017868
:10B090001143017070BDFFF7A9FF70BD00218181D0
:10B0A00070BDF8B5734F3888010645D5704D142131
:10B0B000695E002941DCC004774C0023012600288A
:10B0C00021DAFFF793FF6948818E028B8918C182CC
:10B0D0002078082108432070C0060CD568491E203E
:10B0E0000A682C21285E515E884204DA4018C10F9C
:10B0F00008184010E8836748C078800603D5674881
:10B100000674C382836138888021884320210843E4
:10B1100063495F4A8B611178314311700121090342
:10B12000884338805548EF218381C38103825D487D
:10B130000380207808402070F8BDFFF767FFF8BD56
:10B140004C481622018891430180494809224189CF
:10B15000D2019143418154480222018891430180E8
:10B16000704730B5424916204031085E4F4B0028E9
:10B170001ADC404C2188CA0516D51A885D88101A39
:10B1800080B2420A521992B2C0055A80C00D18808E
:10B190003D480068FF306130C07A904203D8FF20FC
:10B1A00001308143218030BD00201880588030BD9F
:10B1B00010B5304C207800062ED4FFF7D2FF01F0F6
:10B1C000A0F800F0FBF92A491420085E2E4909680E
:10B1D000FF316131097888421FDD32490020088043
:10B1E0002088FF218131084320218843208028487E
:10B1F0000178090909010170FFF7A2FF264AF7212A
:10B200001078084019491070CB8DCB82C98E8029E7
:10B2100002D210210843107010BD49428842FBDC65
:10B220002078C006800F0228F6D1FFF789FF10BDF5
:10B230001F48FF2301681148FF3181310A8F0280C6
:10B240004A8F4280898F81800F499E2209681F336F
:10B25000525AC2805B5AFF3103814131898D41814D
:10B260001448C28270470000007D6400CC010020B9
:10B27000D0020020B4010020900600206A070020C0
:10B28000F403002008040020F80300202407002015
:10B2900071050020EC030020B0010020840700208D
:10B2A00034020020920600209A0200205806002056
:10B2B000FC03002034070020F8B5FF49002409886A
:10B2C0000A0404D54904FC4A490C11800124FB49B5
:10B2D0000978090609D4F84A11888B0605D5202378
:10B2E00099431180490700D50224F549884701B2E6
:10B2F000F44DF54E29803C20305E814200DD2880EF
:10B30000002C0AD02888012C2ED0B18E401A6880DB
:10B310000918B186F18A08182FE034210020715EE7
:10B32000285E01F0BBF86880B18E0918B186E74944
:10B330004989890522D5E549E54A4031498B12887A
:10B3400091421BD9E34988470746E348DC49006836
:10B35000FF306130807D7E31884700B287420DDD4D
:10B36000F08A6988401808E0D449B0860878020657
:10B3700004D4F72210400870F08DF0823420D749B1
:10B38000305E88473061F08AE988884202D829898E
:10B39000884200D2F182D2488047C84D287880097F
:10B3A0000BD1CE48E2388047CE4900200860C24920
:10B3B00001220888520390430880BF4A0221108866
:10B3C000012308431080BF4A083A012C0DD04005E4
:10B3D0008024002804DB10781843084320431070B1
:10B3E000BA48418921434181F8BD2878040602D535
:10B3F0004006400E07E0440607D514781C430C4372
:10B40000BF21147008402870F8BD10781843084315
:10B410001070F8BD70B5B04CA94D2068FF30613098
:10B42000407E7E35A847B04E70832068FF30613083
:10B43000407FA847B0832068FF306130C07DFF3077
:10B44000A847A04EFF21F0802068FF306130007EC9
:10B45000081AA84730812468FF207130015DF02070
:10B4600041439948808B4843112101F0DFFF9F49F8
:10B47000FF3401340860607AFF2800D10A20904927
:10B4800092318847954900B288470921C94301F0A4
:10B49000D3FF8C490839486070BDF1B5864C012155
:10B4A0002088C902884385492080097889097DD18F
:10B4B0001021084320808E48022201881143018018
:10B4C000009800F0ABFF054601F009F9894F00260E
:10B4D000012837D0884806603878C1073BD08748B4
:10B4E00005807D480068FF30893000F0FEFE0128AD
:10B4F000387833D0F12108403870284600F0E7FF53
:10B50000704F01282DD0BD802088C00546D47C48CE
:10B51000058071480068FF30893000F0E6FE794A06
:10B52000C1071078C90F40084000084367491070F0
:10B530000E867549C0074E610E62208824D0012115
:10B54000084323E02946002000F0FAFFFFF762FFDE
:10B5500069480660387800090001CDE706210843F4
:10B56000CAE72946012000F0EBFFFFF753FF0098E0
:10B5700000F054FFB880FFF79FFE644864490660FE
:10B5800020880840208010E04008400020805F486C
:10B5900001210660208889038843208020885D4936
:10B5A000084202D02846FFF787FE00E005E0474842
:10B5B000B98841864A4826388047F8BD4D49087801
:10B5C000C20708D0544A554B528A1B889A4202D867
:10B5D000400840000870704770B55148C078800638
:10B5E00012D5384D297C00290ED0384B1620403317
:10B5F0000024354A185E012902D002292ED012E01B
:10B60000002802DD0220287470BDA869116C324E3A
:10B610004018A861306831494030007B8847A969EB
:10B620004042814201DC2C7470BD3E48E98AC088EA
:10B63000081880B2814201D90020C043E88281B25B
:10B6400030683C2240308089000A50438142EBD36D
:10B6500019484022018811430180E4E70028E3DC17
:10B660001921D06889048842DDDB184840898005AB
:10B67000D9D501202874EC82AC6170BD70B50E493B
:10B6800040230A889A430A8000F0C8FE12490E4DF2
:10B69000096804B2A88A4031897B201A00B2890067
:10B6A000814267DC06492046884702B205483C21B2
:10B6B0000280695E8A4237E0B4010020B0010020B8
:10B6C000131A000184070020CC010020D0020020C2
:10B6D0008006002069590001F80300206B1E00015C
:10B6E0003750000178050020AC06002080050020BE
:10B6F0009A020020710500208405002074050020B6
:10B700007205002070050020340200207C05002016
:10B71000FEBFFFFF20A00000840100207E06002065
:10B72000EC0300202C04002000DD01800021415E9C
:10B73000AA8E8A1A4280A986EB8A9A1892B2EA8265
:10B74000C3889A4201D9EB8203E00089824200D289
:10B75000E8820846F84988472861F8488047F84851
:10B760000122017811430170F64892024486418912
:10B770001143418170BDF8B5F348407880076BD51F
:10B78000EF4CF2490834608AC988F14B401881B205
:10B79000618218680622FF30413082563C256A4398
:10B7A00092B2914258D30025E64A65821426965FEC
:10B7B000002E50DA415FB1424DDC1746403716216A
:10B7C000795E002947DA798B4388994243D3E1496E
:10B7D00010230988C35699423DDB08201A21105EC8
:10B7E000795E401ADC498847D949FF220968453209
:10B7F0008A5600B282422EDBD848798B4088401AA4
:10B8000007B2D54938468847D149FF2209685332E3
:10B810008A5682421FDC002F07D00A207043394627
:10B8200001F00AFECC49884700E0CD48C84905220E
:10B830000968FF3141318A5682420CDB607C072265
:10B84000401CC0B260748A56904205DBC548802215
:10B85000017A114301726574F8BD10B50446C14800
:10B86000017A4906490E0172B948FF210068523138
:10B87000415688B2BC498847B84A0221515E22B27B
:10B8800000B2914201DD404200B2AD49B74C0831EF
:10B890004880A18E081800B2A0863C21615E8842D3
:10B8A00000DDA1863420A449205E88472061A3489A
:10B8B0008047A449A08A488610BD70B5A04D0024D9
:10B8C0002435EC726C72A2486C730068FF306730EC
:10B8D00000F00BFD01280DD19A484030408B00F05C
:10B8E000C4FD012806D1A248A24A01881143018063
:10B8F000EC70AC7070BD10B50C4696490022002368
:10B90000825ECB5E5A43D117090E89180222825EED
:10B91000091250180A2101F08FFDFF2801DDFF20D8
:10B9200002E0A04200DA2046C0B210BD70B5854DDD
:10B93000834C40352434688BE189401A864900B233
:10B940008847E27D8C4990422FDC607A401C60720F
:10B95000A078012806D07C4A9279120716D50028D3
:10B9600011D013E0854A688B12889042086805D38D
:10B97000FF212E31095CFF3039300DE0FF302130DE
:10B98000807B207270BDE078002808D00868FF2115
:10B990002D31095CFF303530FFF7ADFFF1E76C4822
:10B9A0000068FF308130C07BEBE7002060720868E0
:10B9B0000822FF302130007B20726D4801889143BE
:10B9C000018070BD5E48002124304172C172417314
:10B9D00041605C4908224031498B0182C181644841
:10B9E0000188914301807047F8B500F0C9F800283C
:10B9F00047D05749534EFF22086840362932504FEE
:10BA0000738B125A5C4C2437934208D8FF22283299
:10BA1000125CFA752268FF322132127C07E0FF22A5
:10BA20002732125CFA752268FF322132D27B002560
:10BA30003A73FF303D8021303F494079884779682B
:10BA4000814206DBF878002801D10120B870FD7032
:10BA500015E04042814206DCB878002801D101207F
:10BA6000F870BD700BE037491420085E3A498847EA
:10BA70003749FF2209682B328A5E904202DBFFF7CA
:10BA8000A1FFF8BD787B401C78732F488079C006F1
:10BA900002D5F87801281BD02068FF302130407C87
:10BAA000B872FFF743FF797A387A814239D2264853
:10BAB0008079C00631D5F87ABA7A90422DD3FD70DC
:10BAC000708B3A8A801A002811DC002929D12AE0DB
:10BAD000FF2120683231095CFF303D30FFF70BFF5A
:10BAE000B872F87AFF28DCD2401CF872D9E72168D6
:10BAF000FF3121318A7C82420CDBC97C4143C8176B
:10BB0000000F401813490011498A08187882012053
:10BB1000B87506E00120F87005E0787B397B884233
:10BB200001D3FFF7CAFE7D60708B3882797A0029D5
:10BB3000A7D1F881F8BD00006B1E00015350000131
:10BB40007C070020D0020020EC0300202C04002001
:10BB5000F80300208401002069590001D00600206C
:10BB6000FF7F000034070020A51A0001CC0100204F
:10BB7000B401002008080000F40300207E06002025
:10BB80000E4A0F4B51681B6C0020C91851600E4BB8
:10BB90000C491B78C9889B0601D50C4989881388F4
:10BBA000591889B211800A4A3C231268FF322132A7
:10BBB00012795A43914200D301207047A007002018
:10BBC000CC0100202C04002096020020340200202A
:10BBD000F803002010B54948418D49480068FF30FE
:10BBE000A130407D814240D3464947488A88C38876
:10BBF000D01880B288803C2822D388883C3880B214
:10BC00008880CA78521CCA703C28F6D2D0B23C2830
:10BC100016D33C38C8708878401CC0B28870182889
:10BC20000ED3183888704878401CC0B248701E285F
:10BC300006D31E3848700878FF2801D2401C0870CF
:10BC4000C868002811D08A68D2188A6082420CD352
:10BC5000002088602E4B2D4A04212A4898472D4900
:10BC60000122088852021043088010BD10B501F06F
:10BC700070F801F0DDF801F009F9274C2068203058
:10BC8000C078800701D501F0CFF920682030007915
:10BC9000000601D501F057FA20682030C07840072F
:10BCA00001D501F0A8FA01F01BFB01F030FB1B48A5
:10BCB0001B490078097808431A49097808431A494A
:10BCC000097808431949097808431949097808434C
:10BCD0001849097808431849097808431749097829
:10BCE000084317490978084316490978084304D0DE
:10BCF0001548012201781143017010BDD0020020C7
:10BD0000FC030020B80700202C040020520600206D
:10BD1000C3580001CC030020F40300205D0600207E
:10BD20005C0600205E0600205F0600206006002002
:10BD300061060020620600206306002064060020E1
:10BD400065060020660600200804002003B40148B0
:10BD5000019001BDD55D0001F8B504148BB22646F3
:10BD600082B25E430D1410463714584336048019CE
:10BD70000021794116466E43371436048019794103
:10BD800026466E438919F8BD30B47446641E257882
:10BD9000641CAB4200D21D46635D5B00E31830BCFF
:10BDA0001847FFFF23050002F70600020F090002F3
:10BDB0003309000273090002809CCEFF0032647FC9
:10BDC000809CCEFF0032647F01EE025FFF00000026
:10BDD000FFFFFFFFFFFFFFFFFFFFFFFFFFFFFFFF73
:10BDE000FFFFFFFFFFFFFFFFFFFFFFFFFFFFFFFF63
:10BDF000FFFFFFFFFFFFFFFFFFFFFFFFFFFFFFFF53
:10BE0000FFFFFFFFFFFFFFFFFFFFFFFFFFFFFFFF42
:10BFF000FFFFFFFFFFFFFFFFFFFFFFFFA6A2C6320D
:00000001FF
